:020000040000FA
:020000000528D1
:080008003628A901A201A301A1
:10001000A401A501B001B101B201B301B501B6015E
:10002000B401B701B8010930A700A6010311831676
:1000300003130614831203138B178316031388010B
:100040008312031366204C204C20031383160713DE
:100050008717203098000313831290309800031301
:100060008316063099008312031381288312031329
:100070000B118B12A60A831203138312031381013F
:10008000831203138B16831203130900F930F00057
:100090000000F00B48280800F1004620F10B4D2825
:1000A000080008154620081146200800F500F03920
:1000B0008800F418881451204620F50E7508F03990
:1000C0008800F418881451204620080064304C2021
:1000D000F030F40030308800512005304C205120A1
:1000E0004620512008125120283056200830562032
:1000F0000130562006305620803056200C305620D5
:100100000800C9214C204C204C204C20C9214C20F7
:100110004C204C204C20C9214C204C204C204C2001
:100120004C200022F4100F305620F414F414303018
:10013000562030305620831203138B16831203137C
:100140008101831603130530810083120313F41019
:10015000C0305620F414A61BBF280618AB284C202C
:100160004C20061CAB286721A20AF4142208093C83
:10017000031CA201F4142208303E5620A728672150
:10018000F410C1305620F414A61BD8280618C42831
:100190004C204C20061CC4286721A30AF414230811
:1001A000093C031CA301F4142308303E5620BF2849
:1001B0006721F410C2305620F414783056203030C5
:1001C000562030305620F41087305620F414323048
:1001D0005620F410C2305620ED286721F410C330A9
:1001E0005620F414A61B06290618F2284C204C2091
:1001F000061CF2286721A40AF4142408093C031CF5
:10020000A401F4142408303E5620ED286721F41090
:10021000C4305620F414A61B1F2906180B294C20A5
:100220004C20061C0B296721A50AF4142508093C5B
:10023000031CA501F4142508303E56200629672129
:10024000F410C5305620F4143D3056200311220816
:10025000A9002208A207A70B2A292308A20722081F
:100260009900C62125089900C6212408B000031171
:100270000030230603194D292308A301A307B00B5F
:100280003E290A30A302031C4729B10A4129230849
:100290000A3EA3002308B2004F29B201B101290888
:1002A000B3073308A40B4F293108B3077221031198
:1002B000A701A8010A30B602A70A03185A29B607EF
:1002C000A7033608A8007F29061C162A6429831272
:1002D00003138101A601831203138B160B118312E2
:1002E000031308008C1A7821B41885297229080094
:1002F0001A08341880293414B600031157298329A9
:10030000B501B500B4148C120800B1012808B20779
:100310002708B3070A30B202B10A031C90298A29C0
:10032000B1033108B30732080A3EB20003110A30A4
:10033000B70AB30203189729B307B7033308B80005
:10034000A129F41080305620F41452305620653024
:10035000562073305620753056206C30562074303D
:1003600056202030562020305620F410C63056201B
:10037000F4143708303E56203808303E56203208F4
:10038000303E56203508303E562064290C1EC629C2
:1003900008006620F41457305620653056206C3023
:1003A0005620633056206F3056206D305620653011
:1003B000562020305620743056206F305620F410CE
:1003C000C0305620F4144D305620753056206C3015
:1003D00056207430562069305620703056206C30CC
:1003E00056206930562063305620613056207430D4
:1003F0005620693056206F3056206E305620080047
:100400006620F4144E305620753056206D3056203C
:1004100062305620653056207230562020305620EB
:1004200031305620F410C03056200800A901A20136
:10043000A301A401A501B001B101B201B301B5014D
:10044000B601B401B701B8010930A700A601031134
:10045000831203138B17831203136620031383166F
:1004600007138717203098000313831290309800E9
:0E04700003138316063099008312031391289C
:02400E00313748
:00000001FF
