:020000040000FA
:020000000528D1
:080008002C28031183160313D9
:100010000614831203138B170B1683160313880120
:10002000831203135F204520452003138316071313
:100030008717003088002030980003138312903017
:100040009800031383161F3099008B170B17831228
:1000500003138B170B177A28831203130B128B10C1
:10006000A50A25084F20250899009C208312031318
:100070000B168B17831603130C1109000000F930BF
:10008000F0000000F00B41280800F1003E20F10BC9
:100090004628080008153E2008113E200800F500FB
:1000A000F0398800F41888144A203E20F50E7508AF
:1000B000F0398800F41888144A203E200800643083
:1000C0004520F030F400303088004A2005304520CB
:1000D0004A203E204A2008124A2028304F2008306B
:1000E0004F2001304F2006304F2080304F200C3001
:1000F0004F200800AD204520452045204520AD205B
:100100004520452045204520AD204520452045205F
:1001100045204520E420F41431304F203130A50033
:10012000250899009C2045204520452045209328FE
:100130001A0888008C1208000C1E9C2808008312E4
:1001400003130B128B10F41448304F208312031347
:100150000C11831603130C1136285F20F41457304A
:100160004F2065304F206C304F2063304F206F3070
:100170004F206D304F2065304F2020304F2074309D
:100180004F206F304F20F410C0304F20F4144D300A
:100190004F2075304F206C304F2074304F20693025
:1001A0004F2070304F206C304F2069304F2063302B
:1001B0004F2061304F2074304F2069304F206F3016
:1001C0004F206E304F2008005F20F4144E304F2037
:1001D00075304F206D304F2062304F2065304F20FA
:1001E00072304F2020304F2031304F20F4108130BA
:0401F0004F20080094
:02400E00313748
:00000001FF
