:020000040000FA
:100000000128B501B101B601B401B201B301A901E2
:10001000B001A201A7018316031388018312031301
:1000200045202B202B20031383160713871720301E
:100030009800031383129030980003138316063040
:100040009900031383128C126028F930F00000002D
:10005000F00B27280800F1002520F10B2C280800C0
:1000600008152520081125200800F500F039880022
:10007000F418881430202520F50E7508F039880012
:10008000F418881430202520080064302B20F0302C
:10009000F40030308800302005302B20302025201F
:1000A000302008123020283035200830352001302B
:1000B000352006303520803035200C3035200800C2
:1000C00066202B202B202B202B2061288C1A6F20C0
:1000D000A9189128662808000C1E6C2808001A0828
:1000E000291889282914A20003110A30A202A70A9C
:1000F00003187528A207A7032208A800F4142708EC
:10010000303E3520F4142808303E35207830352034
:100110008F28B000F4143008303E3520A9148C121A
:1001200008003008B40003111F3028060319AA285C
:100130002808A801A807B40B9A2828080A30A802A2
:10014000031CA428B10A9E2828080A3EA8002808F3
:10015000B300AC28A801B101B20127082708B207F3
:100160003208B00BAE283108B207C528F4143308A2
:1001700099006C203308303E35202B202B202B207B
:100180002B202B202B2001280800A701A801A20169
:100190000310320899006C203208A20003140A30C0
:1001A000A202A70A0318CF28A207A7032208A800C3
:1001B000F4143D3035202708303E3520F41428084B
:0601C000303E3520B620A0
:02400E00313748
:00000001FF
