:020000040000FA
:020000000528D1
:080008003628A901A201A301A1
:10001000A401A501B001B101B201B301B501B6015E
:10002000B401B701B8010930A700A6010311831676
:1000300003130614831203138B178316031388010B
:100040008312031366204C204C20031383160713DE
:100050008717203098000313831290309800031301
:1000600083161F3099008312031381288312031310
:100070000B118B12A60A831203138312031381013F
:10008000831203138B16831203130900F930F00057
:100090000000F00B48280800F1004620F10B4D2825
:1000A000080008154620081146200800F500F03920
:1000B0008800F418881451204620F50E7508F03990
:1000C0008800F418881451204620080064304C2021
:1000D000F030F40030308800512005304C205120A1
:1000E0004620512008125120283056200830562032
:1000F0000130562006305620803056200C305620D5
:100100000800CD214C204C204C204C20CD214C20EF
:100110004C204C204C20CD214C204C204C204C20FD
:100120004C200422F4100F305620F414F414303014
:10013000562030305620783056203030562030301F
:100140005620831203138B16831203138101831627
:1001500003130530810083120313F410C0305620BE
:10016000F414A61BC5280618B1284C204C20061CE8
:10017000B1287421A20AF4142208093C031CA2012C
:10018000F4142208303E5620AD287421F410C130FA
:100190005620F414A61BDE280618CA284C204C2032
:1001A000061CCA287421A30AF4142308093C031C62
:1001B000A301F4142308303E5620C5287421F410FE
:1001C000C2305620F41478305620F4108730562070
:1001D000F41432305620F410C2305620EF28742127
:1001E000F410C3305620F414A61B08290618F4286E
:1001F0004C204C20061CF4287421A40AF414240872
:10020000093C031CA401F4142408303E5620EF28B6
:100210007421F410C4305620F414A61B21290618AA
:100220000D294C204C20061C0D297421A50AF4141C
:100230002508093C031CA501F4142508303E56206E
:1002400008297421F410C5305620F4143D3056208E
:1002500003112208A9002208A207A70B2C292308B2
:10026000A20722089900BC2125089900BC21240876
:10027000B00003110030230603194F292308A301FE
:10028000A307B00B40290A30A302031C4929B10A75
:10029000432923080A3EA3002308B2005129B201D2
:1002A000B1012908B3073308A40B51293108B3075A
:1002B0007F21F4143308303E56203208303E562059
:1002C0000311A701A8010A30B602A70A031863297F
:1002D000B607A7033608A8008C296E2974214C2084
:1002E0004C204C204C206E29831203138101A6015F
:1002F000831203138B160B118312031308008C1A3D
:100300008521B41892297F2908001A0834188D29EC
:100310003414B600031160299029B501B500B41456
:100320008C120800B1012808B2072708B3070A3069
:10033000B202B10A031C9D299729B1033108B30702
:1003400032080A3EB20003110A30B70AB30203189A
:10035000A429B307B7033308B800AE29F41437084B
:10036000303E56203808303E56203208303E562067
:100370003508303E56206E290C1EBC290800831219
:1003800003130B128B10F4144830562083120313FE
:100390000C11831603130C113D286620F4145730FA
:1003A0005620653056206C305620633056206F3012
:1003B00056206D305620653056202030562074303F
:1003C00056206F305620F410C0305620F4144D30B3
:1003D0005620753056206C305620743056206930C7
:1003E0005620703056206C305620693056206330CD
:1003F00056206130562074305620693056206F30B8
:1004000056206E30562008006620F4144E305620D8
:10041000753056206D30562062305620653056209B
:10042000723056202030562031305620F410C03023
:04043000562008004A
:02400E00313748
:00000001FF
