:020000040000FA
:020000000528D1
:0800080021288316031388016F
:10001000831203134A203020302003138316071362
:100020008717203098000313831290309800031331
:1000300083161F3099008B170B17031383128C1232
:100040006528831203130B128B10831203130B16F4
:100050008B170900F930F0000000F00B2C28080085
:10006000F1002A20F10B3128080008152A20081178
:100070002A200800F500F0398800F418881435208B
:100080002A20F50E7508F0398800F41888143520F8
:100090002A20080064303020F030F400303088002E
:1000A00035200530302035202A2035200812352013
:1000B00028303A2008303A2001303A2006303A20E1
:1000C00080303A200C303A2008006B20302030205D
:1000D0003020302066288C1A6F206B2808001A0800
:0800E000F4143A208C12080010
:02400E00313748
:00000001FF
