:020000040000FA
:020000000528D1
:080008002B28B501B101B6017E
:10001000B401B201B301A901B001A201A701831685
:10002000031388018312031354203A203A20031348
:10003000831607138717203098000313831290301C
:100040009800031383161F3099008B170B170313A7
:1000500083128C126F28831203130B128B108312DE
:1000600003130B168B170900F930F0000000F00B9A
:1000700036280800F1003420F10B3B280800081551
:100080003420081134200800F500F0398800F418F5
:1000900088143F203420F50E7508F0398800F418D4
:1000A00088143F203420080064303A20F030F400F7
:1000B000303088003F2005303A203F2034203F2058
:1000C00008123F20283044200830442001304420CA
:1000D00006304420803044200C3044200800752035
:1000E0003A203A203A203A2070288C1A7E20A9180B
:1000F0009E28752808000C1E7B2808001A0829185D
:1001000096282914A20003110A30A202A70A031894
:100110008428A207A7032208A800F4142708303E69
:100120004420F4142808303E44209C28B000F414E5
:100130003008303E4420A9148C1208003008B40066
:100140000311003028060319B7282808A801A807BA
:10015000B40BA72828080A30A802031CB128B10A4A
:10016000AB2828080A3EA8002808B300B928A8012F
:10017000B101B20127082708B2073208B00BBB282B
:100180003108B207CE28F414330899007B203308D5
:10019000303E44203108303E44200800A701A80129
:1001A000A20103103A203A203A203A203A203A207D
:1001B000320899007B203208F414303E4420320883
:1001C000A20003140A30A202A70A0318E228A20719
:1001D000A7032208A800F4143D3044202708303E2D
:1001E0004420F4142808303E4420C320F728F72880
:02400E00313748
:00000001FF
