:020000040000FA
:020000000528D1
:080008003628A901A201A301A1
:10001000A401A501B001B101B201B301B501B6015E
:10002000B401B701B8010930A700A6010311831676
:1000300003130614831203138B178316031388010B
:100040008312031367204D204D20031383160713DB
:100050008717203098000313831290309800031301
:1000600083161F309900831203138228831203130F
:100070000B118B12A60A831203138312031381013F
:10008000831203138B168312031309000000F93047
:10009000F0000000F00B49280800F1004620F10BA9
:1000A0004E28080008154620081146200800F500D3
:1000B000F0398800F418881452204620F50E75088F
:1000C000F0398800F4188814522046200800643063
:1000D0004D20F030F40030308800522005304D20A3
:1000E0005220462052200812522028305720083033
:1000F00057200130572006305720803057200C30D1
:1001000057200800E0214D204D204D204D20E021BA
:100110004D204D204D204D20E0214D204D204D20E3
:100120004D204D201722F4100F305720F414F414F2
:100130003030572030305720831203138B16831230
:100140000313810183160313053081008312031307
:10015000F410C0305720F414A61BC0280618AC2891
:100160004D204D20061CAC287021A20AF414220850
:10017000093C031CA201F4142208303E5720A82891
:100180007021F410C1305720F414A61BD92806188A
:10019000C5284D204D20061CC5287021A30AF41443
:1001A0002308093C031CA301F4142308303E572004
:1001B000C0287021F410C2305720F4147830572032
:1001C0003030572030305720F41087305720F41447
:1001D00032305720F410C2305720EE287021F4102E
:1001E000C3305720F414A61B07290618F3284D2006
:1001F0004D20061CF3287021A40AF4142408093C9D
:10020000031CA401F4142408303E5720EE2870216A
:10021000F410C4305720F414A61B202906180C290A
:100220004D204D20061C0C297021A50AF414250828
:10023000093C031CA501F4142508303E572007296A
:100240007021F410C5305720F4143D3057200311AD
:100250002208A9002208A207A70B2B292308A2071E
:1002600022089900CF2125089900CF212408B00049
:1002700003110030230603194E292308A301A30705
:10028000B00B3F290A30A302031C4829B10A4229B6
:1002900023080A3EA3002308B2005029B201B1018D
:1002A0002908B3073308A40B50293108B3077B2171
:1002B000F4143308303E57203208303E57200311E3
:1002C000A701A8010A30B602A70A03186229B607D7
:1002D000A7033608A80088296D29061C2D2A6D2938
:1002E000831203138101A601831203138B160B11D2
:1002F0008312031308008C1A8121B4188E297B29DC
:1003000008001A08341889293414B60003115F292B
:100310008C29B501B500B4148C120800B10128086D
:10032000B2072708B3070A30B202B10A031C9929A1
:100330009329B1033108B30732080A3EB200031112
:100340000A30B70AB3020318A029B307B70333086A
:10035000B800AA29F41080305720F41452305720E6
:100360006530572073305720753057206C30572038
:10037000743057202030572020305720F410C630DA
:100380005720F4143708303E57203808303E5720A5
:100390003208303E57203508303E57206D290C1E5C
:1003A000CF290800831203130B128B10F41448306A
:1003B0005720831203130C11831603130C113D28CD
:1003C0006720F41457305720653057206C30572081
:1003D000633057206F3057206D30572065305720DD
:1003E00020305720743057206F305720F410C03021
:1003F0005720F4144D305720753057206C3057205B
:100400007430572069305720703057206C30572097
:10041000693057206330572061305720743057209F
:10042000693057206F3057206E3057200800672002
:10043000F4144E305720753057206D3057206230FD
:1004400057206530572072305720203057203130E8
:100450005720F410C03057200800A901A201A301C1
:10046000A401A501B001B101B201B301B501B6010A
:10047000B401B701B8010930A700A6010311831226
:1004800003138B17831203136720031383160713B9
:1004900087172030980003138312903098000313BD
:0C04A00083161F3099008312031392286A
:02400E00313748
:00000001FF
