:020000040000FA
:020000000528D1
:080008003628A901A201A301A1
:10001000A401A501B001B101B201B301B501B6015E
:10002000B401B701B8010930A700A6010311831676
:1000300003130614831203138B178316031388010B
:100040008312031366204C204C20031383160713DE
:100050008717203098000313831290309800031301
:1000600083161F3099008312031381288312031310
:100070000B118B12A60A831203138312031381013F
:10008000831203138B16831203130900F930F00057
:100090000000F00B48280800F1004620F10B4D2825
:1000A000080008154620081146200800F500F03920
:1000B0008800F418881451204620F50E7508F03990
:1000C0008800F418881451204620080064304C2021
:1000D000F030F40030308800512005304C205120A1
:1000E0004620512008125120283056200830562032
:1000F0000130562006305620803056200C305620D5
:100100000800DF214C204C204C204C20DF214C20CB
:100110004C204C204C20DF214C204C204C204C20EB
:100120004C201622F4100F305620F414F414303002
:10013000562030305620831203138B16831203137C
:100140008101831603130530810083120313F41019
:10015000C0305620F414A61BBF280618AB284C202C
:100160004C20061CAB286F21A20AF4142208093C7B
:10017000031CA201F4142208303E5620A7286F2148
:10018000F410C1305620F414A61BD8280618C42831
:100190004C204C20061CC4286F21A30AF414230809
:1001A000093C031CA301F4142308303E5620BF2849
:1001B0006F21F410C2305620F414783056203030BD
:1001C000562030305620F41087305620F414323048
:1001D0005620F410C2305620ED286F21F410C330A1
:1001E0005620F414A61B06290618F2284C204C2091
:1001F000061CF2286F21A40AF4142408093C031CED
:10020000A401F4142408303E5620ED286F21F41088
:10021000C4305620F414A61B1F2906180B294C20A5
:100220004C20061C0B296F21A50AF4142508093C53
:10023000031CA501F4142508303E562006296F2121
:10024000F410C5305620F4143D3056200311220816
:10025000A9002208A207A70B2A292308A20722081F
:100260009900CE2125089900CE212408B000031161
:100270000030230603194D292308A301A307B00B5F
:100280003E290A30A302031C4729B10A4129230849
:100290000A3EA3002308B2004F29B201B101290888
:1002A000B3073308A40B4F293108B3077A21F4149C
:1002B0003308303E56203208303E56200311A70145
:1002C000A8010A30B602A70A03186129B607A703D6
:1002D0003608A80087296C29061C2C2A6C29831251
:1002E00003138101A601831203138B160B118312D2
:1002F000031308008C1A8021B4188D297A2908006C
:100300001A08341888293414B60003115E298B2981
:10031000B501B500B4148C120800B1012808B20769
:100320002708B3070A30B202B10A031C98299229A0
:10033000B1033108B30732080A3EB20003110A3094
:10034000B70AB30203189F29B307B7033308B800ED
:10035000A929F41080305620F4145230562065300C
:10036000562073305620753056206C30562074302D
:1003700056202030562020305620F410C63056200B
:10038000F4143708303E56203808303E56203208E4
:10039000303E56203508303E56206C290C1ECE29A2
:1003A0000800831203130B128B10F41448305620EC
:1003B000831203130C11831603130C113D286620BE
:1003C000F41457305620653056206C305620633078
:1003D00056206F3056206D30562065305620203024
:1003E0005620743056206F305620F410C0305620FE
:1003F000F4144D305620753056206C305620743031
:10040000562069305620703056206C3056206930A6
:1004100056206330562061305620743056206930A3
:1004200056206F3056206E30562008006620F41497
:100430004E305620753056206D3056206230562092
:1004400065305620723056202030562031305620EC
:10045000F410C03056200800A901A201A301A40194
:10046000A501B001B101B201B301B501B601B401FA
:10047000B701B8010930A700A601031183120313C5
:100480008B17831203136620031383160713871732
:1004900020309800031383129030980003138316C2
:0A04A0001F30990083120313912806
:02400E00313748
:00000001FF
